{
  "contractName": "Certification",
  "abi": [
    {
      "inputs": [],
      "payable": false,
      "stateMutability": "nonpayable",
      "type": "constructor"
    },
    {
      "anonymous": false,
      "inputs": [
        {
          "indexed": false,
          "internalType": "address",
          "name": "student",
          "type": "address"
        },
        {
          "indexed": false,
          "internalType": "address",
          "name": "owner",
          "type": "address"
        },
        {
          "indexed": false,
          "internalType": "uint256",
          "name": "value",
          "type": "uint256"
        }
      ],
      "name": "ClassPaid",
      "type": "event"
    },
    {
      "payable": true,
      "stateMutability": "payable",
      "type": "fallback"
    },
    {
      "constant": true,
      "inputs": [],
      "name": "owner",
      "outputs": [
        {
          "internalType": "address payable",
          "name": "",
          "type": "address"
        }
      ],
      "payable": false,
      "stateMutability": "view",
      "type": "function"
    },
    {
      "constant": false,
      "inputs": [],
      "name": "getContractAddress",
      "outputs": [
        {
          "internalType": "address",
          "name": "",
          "type": "address"
        }
      ],
      "payable": false,
      "stateMutability": "nonpayable",
      "type": "function"
    },
    {
      "constant": false,
      "inputs": [],
      "name": "getContractBalance",
      "outputs": [
        {
          "internalType": "uint256",
          "name": "",
          "type": "uint256"
        }
      ],
      "payable": false,
      "stateMutability": "nonpayable",
      "type": "function"
    },
    {
      "constant": false,
      "inputs": [
        {
          "internalType": "uint256",
          "name": "_value",
          "type": "uint256"
        },
        {
          "internalType": "address",
          "name": "student",
          "type": "address"
        },
        {
          "internalType": "string",
          "name": "classId",
          "type": "string"
        }
      ],
      "name": "enrollClass",
      "outputs": [],
      "payable": false,
      "stateMutability": "nonpayable",
      "type": "function"
    }
  ],
  "bytecode": "0x608060405234801561001057600080fd5b50336000806101000a81548173ffffffffffffffffffffffffffffffffffffffff021916908373ffffffffffffffffffffffffffffffffffffffff1602179055506104da806100606000396000f3fe60806040526004361061003f5760003560e01c806332a2c5d0146100815780634072d70a146100d85780636f9fb98a146101ca5780638da5cb5b146101f5575b61007f34336040518060400160405280601481526020017f304e6d335a6c44575042547171577a665367425900000000000000000000000081525061024c565b005b34801561008d57600080fd5b506100966103cb565b604051808273ffffffffffffffffffffffffffffffffffffffff1673ffffffffffffffffffffffffffffffffffffffff16815260200191505060405180910390f35b3480156100e457600080fd5b506101c8600480360360608110156100fb57600080fd5b8101908080359060200190929190803573ffffffffffffffffffffffffffffffffffffffff1690602001909291908035906020019064010000000081111561014257600080fd5b82018360208201111561015457600080fd5b8035906020019184600183028401116401000000008311171561017657600080fd5b91908080601f016020809104026020016040519081016040528093929190818152602001838380828437600081840152601f19601f82011690508083019250505050505050919291929050505061024c565b005b3480156101d657600080fd5b506101df6103d3565b6040518082815260200191505060405180910390f35b34801561020157600080fd5b5061020a6103db565b604051808273ffffffffffffffffffffffffffffffffffffffff1673ffffffffffffffffffffffffffffffffffffffff16815260200191505060405180910390f35b600160003373ffffffffffffffffffffffffffffffffffffffff1673ffffffffffffffffffffffffffffffffffffffff168152602001908152602001600020604051806060016040528083815260200142815260200160008152509080600181540180825580915050906001820390600052602060002090600302016000909192909190915060008201518160000190805190602001906102ee929190610400565b5060208201518160010155604082015181600201555050507fa16c59c21cf395588acaaafedbfcfc513e66a660b93e14f821ca211e5b64dd62336000809054906101000a900473ffffffffffffffffffffffffffffffffffffffff1685604051808473ffffffffffffffffffffffffffffffffffffffff1673ffffffffffffffffffffffffffffffffffffffff1681526020018373ffffffffffffffffffffffffffffffffffffffff1673ffffffffffffffffffffffffffffffffffffffff168152602001828152602001935050505060405180910390a1505050565b600030905090565b600047905090565b6000809054906101000a900473ffffffffffffffffffffffffffffffffffffffff1681565b828054600181600116156101000203166002900490600052602060002090601f016020900481019282601f1061044157805160ff191683800117855561046f565b8280016001018555821561046f579182015b8281111561046e578251825591602001919060010190610453565b5b50905061047c9190610480565b5090565b6104a291905b8082111561049e576000816000905550600101610486565b5090565b9056fea265627a7a723158203c472befbd7a2fa785a0d39c57cab90b1fabd6e5e154577620e326e12672cfd364736f6c63430005100032",
  "source": "pragma solidity >=0.4.21 <0.7.0;\r\n\r\ncontract Certification {\r\n\r\n    address payable public owner;\r\n\r\n    mapping(address => Class[]) enrolledClass;\r\n\r\n    event ClassPaid(address student, address owner, uint value);\r\n\r\n    struct Certificate {\r\n        uint id;\r\n        string penerima;\r\n    }\r\n\r\n    struct Class {\r\n        string uid;\r\n        uint256 date_register;\r\n        uint256 date_finish;\r\n    }\r\n\r\n    constructor() public {\r\n        owner = msg.sender;\r\n    }\r\n\r\n    function() external payable {\r\n        enrollClass(msg.value, msg.sender, \"0Nm3ZlDWPBTqqWzfSgBY\");\r\n    }\r\n\r\n    function getContractAddress() public returns (address){\r\n        return address(this);\r\n    }\r\n\r\n    function getContractBalance() public returns (uint){\r\n        return address(this).balance;\r\n    }\r\n\r\n    function enrollClass(uint _value, address student, string memory classId) public {\r\n        // Save this for an assertion in the future\r\n        // Send Money\r\n        enrolledClass[msg.sender].push(Class(classId, now, 0));\r\n        emit ClassPaid(msg.sender, owner, _value);\r\n        //        owner.transfer(_value);\r\n    }\r\n}\r\n",
  "sourcePath": "E:/Machung/TA/Projects/coba/contracts/Certification.sol",
  "compiler": {
    "name": "solc",
    "version": "0.5.16+commit.9c3226ce.Emscripten.clang"
  },
  "schemaVersion": "3.0.21",
  "updatedAt": "2020-02-13T05:45:05.300Z",
  "networkType": "ethereum",
  "devdoc": {
    "methods": {}
  },
  "userdoc": {
    "methods": {}
  }
}