{
  "contractName": "Certification",
  "abi": [
    {
      "inputs": [],
      "payable": false,
      "stateMutability": "nonpayable",
      "type": "constructor"
    },
    {
      "anonymous": false,
      "inputs": [
        {
          "indexed": false,
          "internalType": "address",
          "name": "student",
          "type": "address"
        },
        {
          "indexed": false,
          "internalType": "address",
          "name": "owner",
          "type": "address"
        },
        {
          "indexed": false,
          "internalType": "uint256",
          "name": "value",
          "type": "uint256"
        }
      ],
      "name": "ClassPaid",
      "type": "event"
    },
    {
      "payable": true,
      "stateMutability": "payable",
      "type": "fallback"
    },
    {
      "constant": true,
      "inputs": [],
      "name": "certificateCount",
      "outputs": [
        {
          "internalType": "uint256",
          "name": "",
          "type": "uint256"
        }
      ],
      "payable": false,
      "stateMutability": "view",
      "type": "function"
    },
    {
      "constant": true,
      "inputs": [
        {
          "internalType": "address",
          "name": "",
          "type": "address"
        }
      ],
      "name": "classCount",
      "outputs": [
        {
          "internalType": "uint256",
          "name": "",
          "type": "uint256"
        }
      ],
      "payable": false,
      "stateMutability": "view",
      "type": "function"
    },
    {
      "constant": true,
      "inputs": [],
      "name": "contractAddress",
      "outputs": [
        {
          "internalType": "address payable",
          "name": "",
          "type": "address"
        }
      ],
      "payable": false,
      "stateMutability": "view",
      "type": "function"
    },
    {
      "constant": true,
      "inputs": [
        {
          "internalType": "address",
          "name": "",
          "type": "address"
        },
        {
          "internalType": "uint256",
          "name": "",
          "type": "uint256"
        }
      ],
      "name": "enrolledClass",
      "outputs": [
        {
          "internalType": "string",
          "name": "uid",
          "type": "string"
        },
        {
          "internalType": "uint256",
          "name": "date_register",
          "type": "uint256"
        }
      ],
      "payable": false,
      "stateMutability": "view",
      "type": "function"
    },
    {
      "constant": true,
      "inputs": [],
      "name": "owner",
      "outputs": [
        {
          "internalType": "address payable",
          "name": "",
          "type": "address"
        }
      ],
      "payable": false,
      "stateMutability": "view",
      "type": "function"
    },
    {
      "constant": true,
      "inputs": [
        {
          "internalType": "uint256",
          "name": "",
          "type": "uint256"
        }
      ],
      "name": "publishedCertificates",
      "outputs": [
        {
          "internalType": "uint256",
          "name": "id",
          "type": "uint256"
        },
        {
          "internalType": "address",
          "name": "penerima",
          "type": "address"
        },
        {
          "internalType": "uint256",
          "name": "published_date",
          "type": "uint256"
        },
        {
          "internalType": "string",
          "name": "classId",
          "type": "string"
        }
      ],
      "payable": false,
      "stateMutability": "view",
      "type": "function"
    },
    {
      "constant": false,
      "inputs": [
        {
          "internalType": "uint256",
          "name": "_value",
          "type": "uint256"
        },
        {
          "internalType": "string",
          "name": "classId",
          "type": "string"
        }
      ],
      "name": "enrollClass",
      "outputs": [],
      "payable": false,
      "stateMutability": "nonpayable",
      "type": "function"
    },
    {
      "constant": false,
      "inputs": [
        {
          "internalType": "string",
          "name": "classId",
          "type": "string"
        }
      ],
      "name": "publishCertificate",
      "outputs": [],
      "payable": false,
      "stateMutability": "nonpayable",
      "type": "function"
    }
  ],
  "bytecode": "0x608060405230600160006101000a81548173ffffffffffffffffffffffffffffffffffffffff021916908373ffffffffffffffffffffffffffffffffffffffff16021790555034801561005157600080fd5b50336000806101000a81548173ffffffffffffffffffffffffffffffffffffffff021916908373ffffffffffffffffffffffffffffffffffffffff160217905550611094806100a16000396000f3fe60806040526004361061007b5760003560e01c8063bb890d511161004e578063bb890d5114610236578063e192471114610311578063f6b4dfb4146103d9578063fa77e023146104305761007b565b806306905c601461007d57806352d7b89c1461014f57806378dea39d1461017a5780638da5cb5b146101df575b005b34801561008957600080fd5b5061014d600480360360408110156100a057600080fd5b8101908080359060200190929190803590602001906401000000008111156100c757600080fd5b8201836020820111156100d957600080fd5b803590602001918460018302840111640100000000831117156100fb57600080fd5b91908080601f016020809104026020016040519081016040528093929190818152602001838380828437600081840152601f19601f820116905080830192505050505050509192919290505050610525565b005b34801561015b57600080fd5b50610164610749565b6040518082815260200191505060405180910390f35b34801561018657600080fd5b506101c96004803603602081101561019d57600080fd5b81019080803573ffffffffffffffffffffffffffffffffffffffff16906020019092919050505061074f565b6040518082815260200191505060405180910390f35b3480156101eb57600080fd5b506101f4610767565b604051808273ffffffffffffffffffffffffffffffffffffffff1673ffffffffffffffffffffffffffffffffffffffff16815260200191505060405180910390f35b34801561024257600080fd5b5061028f6004803603604081101561025957600080fd5b81019080803573ffffffffffffffffffffffffffffffffffffffff1690602001909291908035906020019092919050505061078c565b6040518080602001838152602001828103825284818151815260200191508051906020019080838360005b838110156102d55780820151818401526020810190506102ba565b50505050905090810190601f1680156103025780820380516001836020036101000a031916815260200191505b50935050505060405180910390f35b34801561031d57600080fd5b506103d76004803603602081101561033457600080fd5b810190808035906020019064010000000081111561035157600080fd5b82018360208201111561036357600080fd5b8035906020019184600183028401116401000000008311171561038557600080fd5b91908080601f016020809104026020016040519081016040528093929190818152602001838380828437600081840152601f19601f820116905080830192505050505050509192919290505050610862565b005b3480156103e557600080fd5b506103ee610e6e565b604051808273ffffffffffffffffffffffffffffffffffffffff1673ffffffffffffffffffffffffffffffffffffffff16815260200191505060405180910390f35b34801561043c57600080fd5b506104696004803603602081101561045357600080fd5b8101908080359060200190929190505050610e94565b604051808581526020018473ffffffffffffffffffffffffffffffffffffffff1673ffffffffffffffffffffffffffffffffffffffff16815260200183815260200180602001828103825283818151815260200191508051906020019080838360005b838110156104e75780820151818401526020810190506104cc565b50505050905090810190601f1680156105145780820380516001836020036101000a031916815260200191505b509550505050505060405180910390f35b600360003373ffffffffffffffffffffffffffffffffffffffff1673ffffffffffffffffffffffffffffffffffffffff16815260200190815260200160002060008154809291906001019190505550600260003373ffffffffffffffffffffffffffffffffffffffff1673ffffffffffffffffffffffffffffffffffffffff16815260200190815260200160002060405180604001604052808381526020014281525090806001815401808255809150509060018203906000526020600020906002020160009091929091909150600082015181600001908051906020019061060f929190610f7c565b50602082015181600101555050507fa16c59c21cf395588acaaafedbfcfc513e66a660b93e14f821ca211e5b64dd62336000809054906101000a900473ffffffffffffffffffffffffffffffffffffffff1684604051808473ffffffffffffffffffffffffffffffffffffffff1673ffffffffffffffffffffffffffffffffffffffff1681526020018373ffffffffffffffffffffffffffffffffffffffff1673ffffffffffffffffffffffffffffffffffffffff168152602001828152602001935050505060405180910390a16000809054906101000a900473ffffffffffffffffffffffffffffffffffffffff1673ffffffffffffffffffffffffffffffffffffffff166108fc839081150290604051600060405180830381858888f19350505050158015610744573d6000803e3d6000fd5b505050565b60055481565b60036020528060005260406000206000915090505481565b6000809054906101000a900473ffffffffffffffffffffffffffffffffffffffff1681565b600260205281600052604060002081815481106107a557fe5b906000526020600020906002020160009150915050806000018054600181600116156101000203166002900480601f0160208091040260200160405190810160405280929190818152602001828054600181600116156101000203166002900480156108525780601f1061082757610100808354040283529160200191610852565b820191906000526020600020905b81548152906001019060200180831161083557829003601f168201915b5050505050908060010154905082565b6000600360003373ffffffffffffffffffffffffffffffffffffffff1673ffffffffffffffffffffffffffffffffffffffff1681526020019081526020016000205490506060600260003373ffffffffffffffffffffffffffffffffffffffff1673ffffffffffffffffffffffffffffffffffffffff168152602001908152602001600020805480602002602001604051908101604052809291908181526020016000905b828210156109e55783829060005260206000209060020201604051806040016040529081600082018054600181600116156101000203166002900480601f0160208091040260200160405190810160405280929190818152602001828054600181600116156101000203166002900480156109c35780601f10610998576101008083540402835291602001916109c3565b820191906000526020600020905b8154815290600101906020018083116109a657829003601f168201915b5050505050815260200160018201548152505081526020019060010190610907565b505050509050600060019050600080600090505b84811015610b01576060848281518110610a0f57fe5b602002602001015160000151905060608790508051825114610a345760009450610af2565b600080905060008090505b8351811015610ad157828181518110610a5457fe5b602001015160f81c60f81b7effffffffffffffffffffffffffffffffffffffffffffffffffffffffffffff1916848281518110610a8d57fe5b602001015160f81c60f81b7effffffffffffffffffffffffffffffffffffffffffffffffffffffffffffff191614610ac457600191505b8080600101915050610a3f565b508015610ae15760009550610af0565b60019550839450505050610b01565b505b505080806001019150506109f9565b506001151582151514610b1357600080fd5b60008090506000600190505b6005548111610d7957610b30610ffc565b600460006005548152602001908152602001600020604051806080016040529081600082015481526020016001820160009054906101000a900473ffffffffffffffffffffffffffffffffffffffff1673ffffffffffffffffffffffffffffffffffffffff1673ffffffffffffffffffffffffffffffffffffffff16815260200160028201548152602001600382018054600181600116156101000203166002900480601f016020809104026020016040519081016040528092919081815260200182805460018160011615610100020316600290048015610c535780601f10610c2857610100808354040283529160200191610c53565b820191906000526020600020905b815481529060010190602001808311610c3657829003601f168201915b50505050508152505090503373ffffffffffffffffffffffffffffffffffffffff16816020015173ffffffffffffffffffffffffffffffffffffffff161415610d6a5760608160600151905060608990508051825114610cb557505050610d6c565b600080905060008090505b8351811015610d5257828181518110610cd557fe5b602001015160f81c60f81b7effffffffffffffffffffffffffffffffffffffffffffffffffffffffffffff1916848281518110610d0e57fe5b602001015160f81c60f81b7effffffffffffffffffffffffffffffffffffffffffffffffffffffffffffff191614610d4557600191505b8080600101915050610cc0565b508015610d625750505050610d6c565b600195505050505b505b8080600101915050610b1f565b506000151581151514610d8b57600080fd5b600560008154809291906001019190505550604051806080016040528060055481526020013373ffffffffffffffffffffffffffffffffffffffff168152602001428152602001878152506004600060055481526020019081526020016000206000820151816000015560208201518160010160006101000a81548173ffffffffffffffffffffffffffffffffffffffff021916908373ffffffffffffffffffffffffffffffffffffffff160217905550604082015181600201556060820151816003019080519060200190610e62929190610f7c565b50905050505050505050565b600160009054906101000a900473ffffffffffffffffffffffffffffffffffffffff1681565b60046020528060005260406000206000915090508060000154908060010160009054906101000a900473ffffffffffffffffffffffffffffffffffffffff1690806002015490806003018054600181600116156101000203166002900480601f016020809104026020016040519081016040528092919081815260200182805460018160011615610100020316600290048015610f725780601f10610f4757610100808354040283529160200191610f72565b820191906000526020600020905b815481529060010190602001808311610f5557829003601f168201915b5050505050905084565b828054600181600116156101000203166002900490600052602060002090601f016020900481019282601f10610fbd57805160ff1916838001178555610feb565b82800160010185558215610feb579182015b82811115610fea578251825591602001919060010190610fcf565b5b509050610ff8919061103a565b5090565b604051806080016040528060008152602001600073ffffffffffffffffffffffffffffffffffffffff16815260200160008152602001606081525090565b61105c91905b80821115611058576000816000905550600101611040565b5090565b9056fea265627a7a72315820d66f25b240b3be87f4d5cbaf7dcdd7439e2be3e5db3770c0d82b48dd68178a8364736f6c63430005100032",
  "source": "pragma solidity >=0.4.21 <0.7.0;\r\n\r\ncontract Certification {\r\n\r\n    address payable public owner;\r\n\r\n    address payable public contractAddress = address(this);\r\n\r\n    mapping(address => Class[]) public enrolledClass;\r\n\r\n    mapping(address => uint) public classCount;\r\n\r\n    mapping(uint => Certificate) public publishedCertificates;\r\n//\r\n    uint public certificateCount;\r\n\r\n    event ClassPaid(address student, address owner, uint value);\r\n\r\n    struct Certificate {\r\n        uint id;\r\n        address penerima;\r\n        uint256 published_date;\r\n        string classId;\r\n    }\r\n\r\n    struct Class {\r\n        string uid;\r\n        uint256 date_register;\r\n    }\r\n\r\n    constructor() public {\r\n        owner = msg.sender;\r\n    }\r\n\r\n    function() external payable {\r\n        //        enrollClass(msg.value, msg.sender, \"0Nm3ZlDWPBTqqWzfSgBY\");\r\n    }\r\n\r\n    function enrollClass(uint _value, string memory classId) public {\r\n//        require(address(this).balance == _value);\r\n        classCount[msg.sender]++;\r\n        enrolledClass[msg.sender].push(Class(classId, now));\r\n        emit ClassPaid(msg.sender, owner, _value);\r\n        owner.transfer(_value);\r\n    }\r\n\r\n    function publishCertificate(string memory classId) public {\r\n        uint jumlahKelas = classCount[msg.sender];\r\n        Class[] memory classList = enrolledClass[msg.sender];\r\n\r\n        // cek apakah betul mengambil kelas\r\n        bool isMatch = true;\r\n        uint classPosition;\r\n        for (uint i = 0; i < jumlahKelas; i++) {\r\n            bytes memory a = bytes(classList[i].uid);\r\n            bytes memory b = bytes(classId);\r\n            if(a.length != b.length){\r\n                isMatch = false;\r\n            }else{\r\n                bool beda = false;\r\n                for (uint j = 0; j < a.length; j++) {\r\n                    if (a[j] != b[j]) {\r\n                        beda = true;\r\n                    }\r\n                }\r\n                if(beda){\r\n                    isMatch = false;\r\n                }else{\r\n                    isMatch = true;\r\n                    classPosition = i;\r\n                    break;\r\n                }\r\n            }\r\n        }\r\n        require(isMatch == true);\r\n//        require(classList[classPosition].date_finish == 0);\r\n//        classList[classPosition].date_finish = now;\r\n        bool isPublished = false;\r\n        for(uint i=1;i<=certificateCount;i++){\r\n            Certificate memory cert = publishedCertificates[certificateCount];\r\n            if(cert.penerima==msg.sender){\r\n//                if(cert.classId==classId){\r\n                    //                    isPublished = true;\r\n                    //                }\r\n                bytes memory a = bytes(cert.classId);\r\n                bytes memory b = bytes(classId);\r\n                if(a.length != b.length){\r\n                    continue;\r\n                }else{\r\n                    bool beda = false;\r\n                    for (uint j = 0; j < a.length; j++) {\r\n                        if (a[j] != b[j]) {\r\n                            beda = true;\r\n                        }\r\n                    }\r\n                    if(beda){\r\n                        continue;\r\n                    }else{\r\n                        isPublished = true;\r\n                    }\r\n                }\r\n            }\r\n        }\r\n\r\n        require(isPublished == false);\r\n        // terbitkan sertifikat (uid mulai nomor 1)\r\n        certificateCount++;\r\n        publishedCertificates[certificateCount] = Certificate(certificateCount, msg.sender, now, classId);\r\n    }\r\n\r\n\r\n}\r\n",
  "sourcePath": "E:/Machung/TA/Projects/coba/contracts/Certification.sol",
  "compiler": {
    "name": "solc",
    "version": "0.5.16+commit.9c3226ce.Emscripten.clang"
  },
  "schemaVersion": "3.0.21",
  "updatedAt": "2020-02-20T16:19:22.461Z",
  "networkType": "ethereum",
  "devdoc": {
    "methods": {}
  },
  "userdoc": {
    "methods": {}
  }
}